:020000040800F2
:10000000584300209D0100081F040008A1020008B9
:100010001B040008230300084D0A0008000000002C
:1000200000000000000000000000000001060008C1
:100030002703000800000000EF010008F106000897
:10004000B7010008B7010008B7010008B7010008B0
:10005000B7010008B7010008B7010008B7010008A0
:10006000B7010008B7010008B7010008B701000890
:10007000B7010008B7010008B7010008B701000880
:10008000B7010008B7010008B7010008B701000870
:10009000B7010008B7010008B7010008B701000860
:1000A000B7010008B7010008B7010008B701000850
:1000B000B7010008B7010008B7010008B701000840
:1000C000B7010008B7010008B7010008B701000830
:1000D000B701000869070008B7010008B701000868
:1000E000B7010008B7010008B7010008B701000810
:1000F000B7010008B7010008B7010008B701000800
:10010000B7010008B7010008B7010008B7010008EF
:10011000B7010008B7010008B7010008B7010008DF
:10012000B7010008B7010008B7010008B7010008CF
:10013000B7010008B7010008B7010008B7010008BF
:10014000B7010008B7010008B7010008B7010008AF
:10015000B7010008B7010008B7010008B70100089F
:10016000B7010008B7010008B7010008B70100088F
:10017000B7010008B7010008B7010008B70100087F
:10018000B7010008B7010008DFF80CD000F0B2F8A2
:1001900000480047190300085843002006488047DC
:1001A00006480047FEE7FEE7FEE7FEE7FEE7FEE75C
:1001B000FEE7FEE7FEE7FEE7010700088901000809
:1001C000EFF3108072B6704780F310887047424A90
:1001D0001368012B04D04FF0010313603F4A1060F5
:1001E0003F4A11603F484FF0805101607047EFF384
:1001F000108272B63848016851B34FF000010160B7
:100200003648016891B1EFF309811EF0100F08BF65
:1002100021ED108B21E9F00F4FF000041EF0100FBC
:1002200008BF012441F8044D006801602C490968A9
:10023000096808C9B1E8F00F002B18BFB1EC108BAA
:1002400081F309884EF0100E002B18BF2EF0100E0F
:1002500082F310884EF0040E704721490860EFF3D6
:10026000148222F0040282F314881C494FF000002B
:10027000086019494FF0010008601B481B49D0F87D
:10028000002041EA0201016016484FF080510160F0
:1002900017480068006880F3088861B662B6704746
:1002A0001EF0040F0CBFEFF30880EFF3098020E984
:1002B000F00F40F804ED40F804ED1EF0040F0CBF01
:1002C00080F3088880F3098800B500F0DBFD5DF855
:1002D00004EB4EF0040E7047300000202800002090
:1002E0002C00002004ED00E020ED00E00000FFFF06
:1002F00008ED00E0064C074D06E0E06840F0010321
:1003000094E8070098471034AC42F6D3FFF740FF5B
:10031000381F0008581F000810B501F0CDFC002060
:1003200010BD00BFFEE77047F0B50A46002100236C
:10033000002400BF3DE0012505FA01F3156805EA38
:1003400003049C4234D105684F000326BE40B543E8
:10035000056015794E00B54006683543056015798E
:10036000012D02D01579022D16D185684F00032684
:10037000BE40B543856055794E00B540866835432B
:100380008560456801268E40B5434560456896798D
:100390008E40B6B235434560C5684F000326BE4067
:1003A000B543C560D5794E00B540C6683543C560D4
:1003B000491C1029BFD3F0BDF0B5002300244D0720
:1003C000ED0E02FA05F3CE1000F1200555F8265087
:1003D0004E07F70E0F26BE40B543CF1000F12006A2
:1003E00046F82750CE1000F1200555F8265045EA72
:1003F0000304CE1000F1200545F82640F0BD0A04A4
:1004000082617047816170474FF6FF710160002182
:10041000017141718171C171704700BFFEE7704782
:1004200070B5002100230F22C4781CB3174C246838
:1004300004F4E064C4F5E064C4F30721C1F10404EA
:10044000E3B20A4144789C40E1B2847814402143ED
:100450000C07210E0E4C05786155047804F01F0539
:100460000124AC4005786D11AD0005F1E025C5F81B
:10047000004109E0047804F01F050124AC40054D5B
:100480000678761145F8264070BD00000CED00E0BE
:1004900000E400E080E100E029B1064A126802436E
:1004A000044B1A6004E0034A12688243014B1A604D
:1004B000704700003038024029B1064A12680243F2
:1004C000044B1A6004E0034A12688243014B1A602D
:1004D000704700002038024029B1064A12680243E2
:1004E000044B1A6004E0034A12688243014B1A600D
:1004F000704700004438024029B1064A126802439E
:10050000044B1A6004E0034A12688243014B1A60EC
:100510007047000024380240F0B50021002200247A
:10052000022500260223324F3F6807F00C0121B15B
:10053000042905D0082937D105E02E4F076036E0A1
:100540002D4F076033E02A4F3F1F3F68C7F38056A7
:10055000274F3F1F3F6807F03F036EB1264FB7FBA1
:10056000F3F7DFF88CC0ACF1040CDCF800C0CCF37E
:10057000881C07FB0CF40CE01E4FB7FBF3F7DFF809
:1005800070C0ACF1040CDCF800C0CCF3881C07FB95
:100590000CF4174F3F1F3F68C7F301477F1C7D00D6
:1005A000B4FBF5F7076002E0124F076000BF00BF21
:1005B0000F4F3F6807F0F0010909104F7A5C076898
:1005C000D74047600A4F3F6807F4E051890A0B4F54
:1005D0007A5C4768D7408760054F3F6807F4604101
:1005E000490B064F7A5C4768D740C760F0BD0000F2
:1005F000083802400024F40000127A00180000209D
:10060000704700000CB5002001900090344800684D
:1006100040F480303249086000BF3148006800F47F
:10062000003000900198401C0190009818B9019882
:10063000B0F5A04FF1D12A48006800F4003010B1A5
:100640000120009001E0002000900098012846D190
:1006500023484030006840F0805021494031086014
:100660002048006840F440401E4908601C4808309B
:1006700000681B49083108600846006840F40040E3
:1006800008600846006840F4A05008601648091F3A
:100690000860081F006840F08070091F086000BFF4
:1006A0000F48006800F000700028F9D040F2057093
:1006B0000E4908600A480830006820F00300084925
:1006C000083108600846006840F00200086000BF7A
:1006D00003480830006800F00C000828F8D10CBD71
:1006E000003802400070004008544007003C0240BF
:1006F00010B500F005FC01F083F900F011FC10BD0D
:1007000010B51548006840F470001349086013489C
:10071000006840F001001149086000200F490831CD
:1007200008600E4800680E4908400C4908600D48F2
:10073000091D0860081F006820F48020091F086058
:10074000002006490C310860FFF75CFF4FF00060A5
:1007500001498039086010BD88ED00E00038024092
:10076000FFFFF6FE1030002410B540F22551054879
:1007700000F0A6F8012804D140F22551014800F00C
:100780000CF810BD0010014001F40072B2F5007FBA
:1007900000D100BFCA430280704710B50022002379
:1007A00040F66A14A14200D100BF0A12012494400D
:1007B000A3B2DC43048010BD21B1828942F400520F
:1007C000828104E082894DF6FF731A40828170476E
:1007D00010B504463248844208D101211020FFF7A9
:1007E0008BFE00211020FFF787FE57E02D48844242
:1007F00009D101214804FFF75FFE00214FF40030CA
:10080000FFF75AFE4AE02848844209D101218804B2
:10081000FFF752FE00214FF48020FFF74DFE3DE030
:100820002248844209D10121C804FFF745FE002176
:100830004FF40020FFF740FE30E01D48844209D10C
:1008400001210805FFF738FE00214FF48010FFF763
:1008500033FE23E01748844208D101212020FFF70E
:100860004BFE00212020FFF747FE17E0124884428C
:1008700009D101218807FFF71FFE00214FF08040BA
:10088000FFF71AFE0AE00D48844207D10121400516
:10089000FFF712FE00216005FFF70EFE10BD0000FD
:1008A000001001400044004000480040004C00405F
:1008B000005000400014014000780040007C0040DF
:1008C00070B50246002400230025002040F66A1679
:1008D000B14200D100BFC1F3421501F01F03012650
:1008E00006FA03F3012D02D19689334006E0022D6A
:1008F00002D1168A334001E0968A33400C12012659
:1009000006FA04F41688344013B10CB1012000E05B
:10091000002070BDF0B5034600240026002500200D
:1009200040F66A17B94200D100BF1846C1F342141D
:1009300001F01F06012707FA06F5012C01D10C3042
:1009400004E0022C01D1103000E014301AB1076825
:100950002F43076002E00768AF430760F0BD000067
:100960002DE9FF4705460E460024A14600BFA046DC
:10097000B08900B100BF2C8A24F44054F0880443AD
:100980002C82AC8941F20C608443B08831890843E1
:10099000718908430443AC81AC8A24F44074B08963
:1009A0000443AC826846FFF7B7FD2048854202D079
:1009B0001F48854202D1DDF80C9001E0DDF8089077
:1009C000A88900F4004040B109EBC90000EB091010
:1009D00031684900B0FBF1F707E009EBC90000EB13
:1009E000091031688900B0FBF1F76420B7FBF0F023
:1009F00004012009642101FB1078A88900F400405B
:100A000040B1322000EBC800B0FBF1F000F007006D
:100A1000044308E0322000EB08106421B0FBF1F041
:100A200000F00F0004432C81BDE8FF870010014057
:100A3000001401404FF41651016000218180C180F3
:100A400001810C21418100218181704700BFFEE7B7
:100A5000014609B900207047C8B220B1C8B20E4A99
:100A6000105C401CF7E701F47F4028B10A48C1F34D
:100A70000722805C0930EEE701F47F0028B10648C8
:100A8000C1F30742805C1130E5E7034800EB1160D9
:100A900000781930DFE70000041E000802E008C8F3
:100AA000121F08C1002AFAD170477047002001E0E8
:100AB00001C1121F002AFBD1704700002DE9FC5F25
:100AC00004468B4615461E46DDE90C9ADDE90E7894
:100AD00004F114004060006000BF1C346560A66033
:100AE000C4F80C90C4F810A02321D4E9030200F04C
:100AF00077FBD4E9033C63441A1F0F4BD4E901018F
:100B000000F0D6F92060A77667760020E061C4F88F
:100B10002080C4F82480606120766065A0651C3C5C
:100B200000902346054A2146019004F1440001F05B
:100B300016F80020BDE8FC9F451700087119000851
:100B40002DE9F04704460E4617469846DDF82090FA
:100B500084F80990607A20F001006072E6612762F3
:100B60000020A062C4F82480002506E004F11401EE
:100B700001EBC50000F033FA6D1C012DF6DBBDE87A
:100B8000F08770B50546002406E005F1140101EB7D
:100B9000C40000F065FA641C012CF6DB70BD70B572
:100BA0000446FFF70DFB0546206F10B12046216F6C
:100BB00088472846FFF708FB70BD00001FB54FF4BB
:100BC000E13001F0A3F801210220FFF765FC0420C9
:100BD000029001208DF80C0000208DF80E000320FB
:100BE0008DF80D0000208DF80F0002A90B48FFF7CB
:100BF0009BFB142003214FF400730022CDE9001069
:100C0000074908A000F06FFD094908600846006820
:100C100000F076FE002004B010BD00000004024089
:100C2000E51C0008746872656164303100000000E2
:100C30001400002010B5044600F066F8FFF7BEFF70
:100C400010BD000030B51A4C436824681919884259
:100C500015D04B889BB9174B1B6899420FD0164B88
:100C60001B688B4201D1144B18604B684360104BDA
:100C70001B68C31A0E4D4C682D682C44A3600C4CA5
:100C8000836824681A19824211D053887BB90A4BB1
:100C90001B68834201D1084B1A6043685360044BC0
:100CA0001B68D31A024D44682D682C44A36030BDE4
:100CB0004000002044000020480000201CB5142003
:100CC0000A214FF480730022CDE90010044905A0E9
:100CD00000F009FD0446204600F012FE1CBD000095
:100CE000350C00086D61696E0000000010B5044C01
:100CF00002E020688047241D02488442F9D310BDD9
:100D00002C1F0008301F000810B5044C02E02068BA
:100D10008047241D02488442F9D310BD301F0008CB
:100D2000341F000810B5FFF74BFA0446044800884A
:100D3000401C00B2024908802046FFF745FA10BD6A
:100D40009C00002010B5FFF73BFA04460C480088D1
:100D5000401E00B20A4908800846B0F90000002889
:100D60000ADC002008802046FFF72EFA05480068BC
:100D700028B100F0EDFA02E02046FFF725FA10BD99
:100D80009C000020A000002070B5054605B970BD8C
:100D900016480068854203D315480068854200D391
:100DA000F5E7A5F10C044FF0FF31124800F0A0FB6D
:100DB000002060804FF4F55020800F480068844286
:100DC00001D20D480460094960680968611A401A37
:100DD0000A490968081A094908602046FFF732FFE6
:100DE000044800F05CFB00BFD1E700004000002099
:100DF0004400002034020020480000205000002061
:100E0000004870475403002000487047543F0020BA
:100E100070B5194800684FF47A72B0FBF2F1481EC1
:100E2000B0F1807F00D31BE0481E4FF0E0225061FC
:100E300050170F22002807DA13071D0E0F4B00F082
:100E40000F04241F1D5503E013071C0E0C4B1C54EC
:100E500000BF00204FF0E02290610720106100BF2A
:100E6000FFF744FFFFF7D0FF0446FFF7C9FF054631
:100E7000214600F093FB70BD0000002018ED00E05B
:100E800000E400E02DE9F041044604F12805271DA7
:100E90000648006840B12846044909688847064664
:100EA0000EB9BDE8F08100BF00BFFEE734000020AE
:100EB000F0B504460D461646301D20F007004438B4
:100EC0000146002203E00D4F41F82270521C112A06
:100ED000F9D34D624FF0000CC1F828C0C1F82CC006
:100EE000C1F830C0C1F834C08B63CC634FF0807C54
:100EF000C1F840C000270F60F0BD0000EFBEADDEBE
:100F000010B5FFF75DF9044604480078401C03491A
:100F100008702046FFF758F910BD00003C00002083
:100F200010B5FFF74DF9044604480078401E034908
:100F300008702046FFF748F910BD00003C00002073
:100F400070B504462068A0F11405284600F092FC14
:100F5000002070BD2DE9F04105460C469046204624
:100F600000F0E4FCB8F1000F03D0B8F1010F23D179
:100F700005E004F11401284600F049F81DE02E6850
:100F80000FE0A6F1140794F8350097F83510884261
:100F900006DA04F1140107F1140000F038F802E059
:100FA0003668AE42EDD100BFAE4204D104F1140167
:100FB000284600F02CF800E000BF00BF0020BDE88C
:100FC000F08110B5044604F1140000F002F800208E
:100FD00010BD406000607047406000607047406036
:100FE000006070470268516002680A6001604860F2
:100FF00070470268516002680A600160486070478B
:101000000268516002680A60016048607047426887
:10101000116042684A604160086070470146086894
:10102000884201D1012070470020FCE70146086892
:10103000884201D1012070470020FCE7D0E900215F
:101040005160D0E900121160406000607047D0E943
:1010500000215160D0E900121160406000607047CB
:10106000D0E900215160D0E90012116040600060B9
:10107000704700002DE9F041054615B90020BDE894
:10108000F081E81C20F003054E480068854201D934
:101090000020F4E70C2D00D20C254FF0FF314A4818
:1010A00000F026FA4948006849490968461A7EE076
:1010B0004748006884196088002874D106F10C0044
:1010C0006168081AA8426ED306F10C006168091A1B
:1010D00005F11800814230D306F10C0000EB050841
:1010E0003B48006800EB08074FF4F55038800020BB
:1010F000788060687860BE60C4F8048001206080F9
:101100003048796800680C30814205D030497868F1
:1011100009680844C0F808802E48016805F10C00F1
:1011200008442C4908602C4800680968884219D294
:10113000284800682849086014E00120608024499C
:1011400060680968611A401A2249096808442149FF
:101150000860214800680968884203D21D48006879
:101160001D4908604FF4F5502080184800688442FB
:1011700012D107E01548006840681549096808441D
:101180001249086011480068408828B10F4800687B
:10119000124909688842EDD10B4800F080F904F14A
:1011A0000C006CE7FFE70A480068304446680548D1
:1011B0000068401BB0423FF67BAF034800F06FF978
:1011C00000205CE74C000020340200204800002092
:1011D0004000002050000020540000204400002067
:1011E000F0B50C460546E6B2042A15D300F0030715
:1011F00097B9014646EA062343EA034304E008C1DF
:1012000008C108C108C1103A102AF8D201E008C18B
:10121000121F042AFBD20D4601E005F8016B171ED0
:10122000A2F10102F9D1F0BD2DE9F04106460F46C9
:10123000304600F045F80546E868FFF71BFF044616
:1012400014B90020BDE8F08100212046EA68FFF7CC
:10125000C7FF26720020607208223946204600F03F
:1012600082F9FEF7ADFF804604F10C01281DFFF75F
:10127000B9FE4046FEF7A8FF2046E3E770B50446F6
:1012800000202072FEF79CFF054604F10C00FFF7DA
:10129000D5FE2846FEF798FF2046FFF775FD70BD86
:1012A00070B5044600202072FEF78AFF054604F15F
:1012B0000C00FFF7C3FE2846FEF786FF70BD000056
:1012C000024600210AE0074800EB01100078904236
:1012D00003D1044800EB01107047491C0429F2DBDC
:1012E0000020F9E7580000202DE9F04704460D469C
:1012F000904600262846FFF7E3FF0746FFF712FD5A
:101300007E6802E0A6F10C003668381D8642F9D1ED
:10131000FFF718FD45F08000207208224146204664
:1013200000F021F9FEF74CFF814604F10C01381D55
:10133000FFF758FE4846FEF747FFBDE8F087014635
:10134000087A00F0800008B1012070470020FCE717
:101350002DE9F041FEF734FF07461848008838BBF6
:1013600017480068FFF774FB461E164850F8360011
:10137000A0F1140414480068844218D013490E7078
:101380001148056804601248007850B904F11C0146
:1013900005F11C00FEF71BFF3846FEF715FFBDE800
:1013A000F08104F11C0105F11C00FEF710FF00BFE5
:1013B0003846FEF709FF00BFF1E700009C0000205F
:1013C0009800002054020020A0000020A40000206B
:1013D0003C00002070B50446FEF7F2FE054614F806
:1013E000340F20F00F0040F0010020706278343C90
:1013F0000A4B03EBC20004F1140142681160426819
:101400004A604160086000BF0549A06B0968084355
:10141000034908602846FEF7D7FE70BD540200203D
:101420009800002070B50446FEF7CAFE054604F198
:101430001400D0E900215160D0E900121160406031
:10144000006000BF94F83510094A02EBC100016842
:10145000814201D1012100E0002129B10548A16BA1
:1014600000688843034908602846FEF7ADFE70BD5A
:1014700054020020980000202DE9F04104460D465A
:1014800016461F462A4602212046FFF72DFF20461A
:10149000FFF797FDA68367720020BDE8F08170B565
:1014A00004460025FEF78CFE064604F11400FFF703
:1014B000B5FD28B904F11400FFF742FD01250EE047
:1014C000A08B4FF6FF71884203DAA08B401CA083EB
:1014D00005E03046FEF778FE6FF0020070BD304642
:1014E000FEF772FE012D01D1FFF732FF0020F5E774
:1014F00073B50546FEF764FE0646A88B002806DD98
:10150000A88B401EA8833046FEF75EFE28E00198B7
:1015100028B93046FEF758FE6FF001007CBD00F0A0
:10152000C7F90446002020636A7A214605F11400B9
:10153000FFF710FD0198002809DD01AA002104F140
:10154000440000F0C7FA04F1440000F01FFB3046ED
:10155000FEF73AFEFFF7FCFE206B08B1206BDDE7DB
:101560000020DBE7704770B50346A2B118460C4671
:1015700000BF14F8016B00F8016B3EB902E00025D2
:1015800000F8015B551E2A1EF9D102E0551E2A1EE5
:10159000EFD100BF00BF184670BD00002DE9F0413B
:1015A00007468846F81C20F0030528F00306182E8D
:1015B00008D9A6F11800A84204D3701B18381C499A
:1015C000086001E0BDE8F0811A48056004684FF446
:1015D000F5502080164800680C3060600020A06044
:1015E00060801449606809680844134908604FF432
:1015F000F5500968088001200F49096848800C48A7
:1016000000680C300C4909684860094800680C30D3
:101610000949096888600023012208A10948FFF7E9
:101620002BFF044800680849086000BFCAE70000B3
:101630004C000020400000204400002068656170DC
:1016400000000000340200204800002010B50020F7
:101650000B490880002405E00A4901EBC400FFF7AC
:10166000BBFC641C202CF7DB1F20074908700020FE
:1016700006490860064908600648FFF7ADFC10BD42
:101680009C00002054020020A4000020A0000020A4
:1016900098000020A800002070B508480068FFF7F7
:1016A000D7F9451E064850F83500A0F11404054846
:1016B000046004F11C00FEF7D0FD70BD980000200E
:1016C00054020020A000002010B5002405E00449C9
:1016D00001EBC400FFF783FC641C002CF7D010BDA5
:1016E000B000002070472DE9FF5F06460F46904688
:1016F0001D46DDE90EAB31460120FFF795FD814621
:10170000B9F1000F03D1002004B0BDE8F09F2846D6
:10171000FFF7B0FC044624B94846FFF7AFFD0020B0
:10172000F2E743463A46314648468DE8300CFFF72B
:10173000C5F94846E8E710B50446204600F0BEF873
:1017400010BD000070B513480468FEF739FD05466A
:101750002046FFF724FA2046FFF764FE042084F8B1
:10176000340004F1440000F0E6F92046FFF7E7FDFD
:10177000012803D12046FFF793FD04E004F1140192
:101780000548FFF736FCFFF7E3FD2846FEF71CFD92
:1017900070BD0000A0000020A800002001E000F0C3
:1017A00001F8FCE770B528E0FEF70AFD054600BF2A
:1017B00013480168814201D0012100E0002119B9DC
:1017C0002846FEF701FD19E00D480068A0F1140459
:1017D00004F11400D0E900215160D0E90012116039
:1017E0004060006000BFA06AFFF7CEFA2046FFF716
:1017F00045FD2846FEF7E8FC00BFD5E700BF70BDF9
:10180000A80000201FB520201F21C200074BCDE9F2
:101810000032CDE902100023054A06A1074800F076
:101820000FF8064800F06CF81FBD000034010020DE
:101830009D1700087469646C65000000BC000020FE
:101840002DE9FF5F05460C4616461F46DDE910AB45
:10185000DDE90E89224601212846FFF745FD3B467A
:101860003246214628468DE8000FFFF727F904B0DD
:10187000BDE8F09F70B5044694F8340000F00F0006
:10188000022802D04FF0FF3070BDFEF799FC0546EC
:1018900004F11400FFF7DBFB04F1440000F0ECF965
:1018A0002846FEF791FC2046FFF794FD0020EBE769
:1018B0000148006870470000A000002031B5FEF725
:1018C0007FFC05460D480468204600F02FF86A4664
:1018D000002104F1440000F0FDF804F1440000F0A0
:1018E00055F92846FEF770FCFFF732FD206B801C8F
:1018F00008B900202063002038BD0000A0000020AF
:1019000010B504463434A0786070617801208840B6
:101910006060022004F834092046FFF7ABFFFFF7B0
:10192000C7FF08B1FFF714FD002010BD70B50446D5
:1019300094F8340000F00F00012802D04FF0FF307F
:1019400070BDFEF73DFC05462046FFF76BFD94F8A1
:10195000340020F00F0040F0020084F8340004F15D
:10196000440000F089F92846FEF72EFC0020E7E746
:1019700070B5044625466FF00100286305F1140098
:10198000FFF765FB2846FFF725FDFFF7E1FC70BD7B
:1019900070B5FEF715FC05461448046894F8340049
:1019A00000F00F0001281CD1D4E90510814218D0A5
:1019B00004F11400FFF74BFB94F835200C4B03EBBC
:1019C000C20004F114014268116042684A6041603B
:1019D000086000BF2846FEF7F7FBFFF7B9FC0020C0
:1019E00070BD2846FEF7F0FB0020F9E7A0000020BC
:1019F00054020020014800687047000038000020B1
:101A000010B50A480068401C08490860FFF750FFFD
:101A10000446206C401E2064206C18B9E06B2064E2
:101A2000FFF7B6FF00F004F810BD000038000020FA
:101A30007CB56846FFF7D3FAFFF7DCFF0546FEF7F3
:101A4000BFFB06463AE022480068A0F11404A06AF1
:101A5000281A6FF0004188422ED22046FFF791F8F5
:101A6000607A00F0020018B9607A20F0010060721C
:101A700004F114016846FFF7C3FAD4E90710884758
:101A8000FFF7B8FF05466846FFF7D0FA00B115E04A
:101A900004F11400FFF7E4FA607A00F0020060B18C
:101AA000607A00F0010040B1607A20F001006072BD
:101AB000204600F06BF800E005E000BF0448FFF7A7
:101AC000B5FA0028BFD000BF3046FEF77DFB7CBDD5
:101AD000B00000202DE9F04104460E461546FEF701
:101AE0006FFB0746052E1ED2DFE806F00603090E3F
:101AF0001300606A286017E02868606214E0607A6A
:101B000020F0020060720FE0607A40F00200607224
:101B10000AE0607A00F0010010B10120286001E0C5
:101B20000020286000E000BF00BF3846FEF74CFBF5
:101B30000020BDE8F08170B50446FEF741FB054684
:101B40002046FFF71EF8607A20F0010060722846F8
:101B5000FEF73AFB2046FFF7A3FB002070BD2DE9FE
:101B6000F84307460C4615461E46DDE9088922461D
:101B70000A213846FFF7B8FB434632462946384625
:101B8000CDF80090FEF7DCFFBDE8F8832DE9F843BF
:101B90000546FEF715FB80462846FEF7F2FF687AF9
:101BA00020F001006872FFF725FF696A0844A86207
:101BB0002F4F009700242AE019E05DF824201168D7
:101BC000142202EBC402881A826AAB6AD21A00D1CC
:101BD00008E0826AAB6AD21A6FF000439A4200D2E0
:101BE0000CE000BF5DF8240000684DF824005DF8AB
:101BF000240007EBC40149688842DED100BF2CB144
:101C00005DF824000830611C4DF82100641C002C94
:101C1000D2D018480068401C16490860084606687B
:101C200005F114010098FFF7EBF9022412E006F029
:101C3000030060B9C4F1010305F1140202EBC30112
:101C4000C4F101025DF82200FFF7DAF900E003E0D9
:101C5000B608641C012CEAD900BF687A40F0010084
:101C600068724046FEF7B0FA0020BDE8F883000035
:101C7000B0000020B800002070B50446607A00F083
:101C8000010010B94FF0FF3070BDFEF799FA05461C
:101C90002046FEF776FF607A20F001006072284649
:101CA000FEF792FA0020EFE700207047002070470F
:101CB000002070470020704710B5FEF781FAFFF74B
:101CC000A7F8FFF74FFCFFF7FFFCFFF7BFFCFEF79D
:101CD000F5FFFFF707FDFFF795FDFFF7DDFC00209F
:101CE00010BD00000FE004210748FEF78BFB4FF406
:101CF0007A70FFF720FD04210348FEF780FB4FF4C4
:101D00007A70FFF718FDEEE70004024010B588B0C6
:101D1000044601210846FEF7BFFB07220921374888
:101D2000FEF74AFB07220A213448FEF745FB06A8C6
:101D3000FEF76AFB4FF40070069002208DF81C003D
:101D400003208DF81D0000208DF81E0001208DF865
:101D50001F0006A92948FEF7E7FA06A8FEF754FB7C
:101D60004FF48060069002208DF81C0003208DF84F
:101D70001D0000208DF81E0001208DF81F0006A90F
:101D80001E48FEF7D1FA01211020FEF7A5FB1C48E2
:101D9000FEF71EFD02A8FEF74DFE02940020ADF8EE
:101DA0000C00ADF80E00ADF810000C20ADF81200DC
:101DB0000020ADF8140002A91148FEF7D1FD202142
:101DC0000F48FEF7E1FC012240F225510C48FEF7D6
:101DD000A1FD01210A48FEF7EFFC25208DF8040043
:101DE00000208DF8050001208DF806008DF8070011
:101DF00001A8FEF715FB08B010BD0000000002406E
:101E00000010014000000100020001000300010079
:101E100002000100040001000200010003000100B3
:101E200002000100050001000200010003000100A2
:101E30000200010004000100020001000300010093
:101E40000200010006000100020001000300010081
:101E50000200010004000100020001000300010073
:101E60000200010005000100020001000300010062
:101E70000200010004000100020001000300010053
:101E80000200010007000100020001000300010040
:101E90000200010004000100020001000300010033
:101EA0000200010005000100020001000300010022
:101EB0000200010004000100020001000300010013
:101EC0000200010006000100020001000300010001
:101ED00002000100040001000200010003000100F3
:101EE00002000100050001000200010003000100E2
:101EF00002000100040001000200010003000100D3
:101F000002000100303132333435363738396162FE
:101F100063646566003031323334353637383941E1
:101F20004243444546000000B51C0008AD1C0008B3
:101F3000A91C0008B11C0008581F00080000002060
:101F4000BC0000009C0A000814200008BC0000200F
:101F50009C420000AC0A0008007A030A000000005E
:101F60000000000001020304060708090000000049
:101F7000000000000102030401020304060708092F
:101F80000000000000000000000000000000000051
:101F90000000000000000000000000000000000041
:101FA0000000000000000000000000000000000031
:101FB000010000005C0000205C00002078000000B0
:101FC000020000006C0000206C00002020000000D7
:101FD000050000007C0000207C0000203000000094
:101FE0000A0000008C0000208C0000202C00000063
:101FF00000000000000000000000000000000000E1
:1020000000000000000000000000000000000000D0
:0420100000000000CC
:040000050800018965
:00000001FF
